:100000000C94A0140C94C8140C94C8140C94C81428
:100010000C94C8140C94C8140C94C8140C94C814F0
:100020000C94C8140C94C8140C94C4200C94332160
:100030000C94C8140C94C8140C94C8140C94C814D0
:100040000C94C8140C94C8140C94C8140C94C814C0
:100050000C94C8140C94C8140C94C8140C94652304
:100060000C94C8140C94C8140C94C8140C94C814A0
:100070000C94C8140C94C8140C94C8140C94C81490
:100080000C94C8140C94C8140C94C8140C94C81480
:100090000C94C8140C94C8140C94C8140C94C81470
:1000A0000C94C8140C94C8140C94C814B4EB0E86A9
:1000B000DDB604025883A5CC22057EB918307FDB5B
:1000C000692D3F0583B67E0400B4EB0E86DDB6A035
:1000D0005DB91A469FAE4F98B50516BD57E384B873
:1000E000214D0A00B4EB0E86DDB66652BABB110F85
:1000F00018760D240D3698D5560F20795981230096
:10010000B4EB0E86DDB6C46B950EAD2E0516BD6440
:10011000088D69279A41D5F2442E656D502600B4AA
:10012000EB0E86DDB66AA0363EDD300775E552601F
:10013000E6FA7DAD2E1306B54D130F0400B4EB0E99
:1001400086DDB684084BD6B9BB8528665DB6C4C8C3
:10015000BA895200B4EB0E86DDB64F1A2E3F380F27
:1001600020526656CF0B0B8E58186B0627089770D7
:10017000A036008353350D514F9A40A5FC1A44AB6D
:100180000B0F10852D6D83061790CF29B4EB0E86CB
:10019000DD2108000F792891072B27EE2DB4EB0EF7
:1001A00086DDB6D228911B26662ED97F1D8D0707C6
:1001B0004847AB8FF82F1D592C4F2B0E00B4EB0E78
:1001C00086DDB6811372271830B23329133452DA20
:1001D0002C6C2477500700B433630258744DF21826
:1001E0002C051BB703594BD6CF78B0E4187509D34B
:1001F000892B00E06C3E53F344D6D4DE6086DD21CB
:100200000800B4EB0E86DDB68408051169341DF7CD
:100210002A890B1B944800B4EB0E86DDB6890B1BB4
:100220001DF72A08A37C00B4EB0E86DDB62C7B19E3
:10023000E1271A469F6907FE49025A060600B4EBF9
:100240000E86DDB6523F4D17B9D108A37C74FA046F
:10025000025883A5CC00B4EB0E86DDB6EE0A0A592F
:100260003B300886AF2C0C0800520411ECAA4F1842
:100270003B0F8F291830B4D86B3F3A0FE82A4B0850
:100280009A0D4C554D8200B4631A2629088B11250E
:10029000463371251A2A890B1BCE2A333136850A3B
:1002A0001300B4A01375B554293541255C4258D2CA
:1002B00047EE1D790AA3B324292F20394BC7692D96
:1002C000394BC7D02CD3354100D7C9D4CD060E0F3A
:1002D000871D10173F215F7EE62C8397B91830D613
:1002E000300DAB208D8000B4D97F1DAC2BE4C469E8
:1002F0000A69078E58AECB2E669C230400B4D97FC2
:100300001D4813D3AD63828B11C9252CB516D7B701
:10031000BA035991110F4F2B2779F48000B44D95F2
:100320006CCD06135C1024D6EA412BF543F91A5420
:100330000C27523F4D3096198F50F8C42396FE4932
:100340005488057200B4D97FCE2A2C84084BD6512C
:100350007613120700B452426B11CFCA65260833D8
:10036000290E0A0F49792DC8C67B17B7E69C900A5B
:10037000160F0C00B44FF2A4CABD72E47B1AC3413D
:100380001DD1AE2C035909862094760E0530164FE8
:1003900019548200B411A25B2E1853B99219A2F815
:1003A000C49E1607A32CCD7A7A176928941A1DDBF0
:1003B0009A89B8F40F0C8000B452426B111D2CD7EF
:1003C00030690A6641E4660A1BB643F90E06B57B3E
:1003D00029E0206A731A469FACF7C223630A00B46F
:1003E000DB0E0F871D79F2BC742C38E6230D2C53DD
:1003F000F01313F489C4D224101846CCBA3EA25B81
:100400006200B4D97F1D631A2894209176089FD882
:10041000D7683875D3D2C37C482BE6370918480013
:10042000B452A7B50D4D1A2716F2B94B62880F8743
:10043000CCCD06135C10E203024A7E29337A452DA7
:1004400011175C9A27089C6D0400B42C4853B563BF
:100450001AC352C52719340933298D7EB7DAE1C989
:1004600064410A727830BB85CAD92C0E00B4631A75
:100470003A5418480317542DAE6330669864668F5B
:10048000229DACA22E166B110800B46D184D8FB9C9
:10049000D14F1A080F46CF16BDC54853B724AB61DC
:1004A000F80D311955308C0A423FB7F19C230400F6
:1004B000B4337B5936CE0653BD3B2F33025A00B4BA
:1004C0006B061BB7BC4CAF2069A6485A469FE01884
:1004D000F904025869704A36C6277B513C2DD02357
:1004E00039870800B4337B59361D8333CE2A0883FD
:1004F00071E8EF120F662E727B415A469F664ED806
:100500000E9200B4185C78451D5429F72A19121D63
:100510002C4ED3187E23260800B44F599CB50DA449
:1005200011320D752C7830390A197120100F0C35E5
:1005300083204B0BA00A41278D088E0C352600B472
:100540004F599CB519070F852D3F2C9DB7EC0A1903
:10055000712052080D708527FA0D70400400B439DF
:100560000C73C85C11300511115E231BB9BB8DF3F0
:10057000C9037E21CE8B0B1BB7C2043034200E0F73
:10058000950800B4524F17B7ED0A722D1830656CFC
:100590004A84B8BBAE42BA286B1A477ACC00B42C56
:1005A000423DB9FA7B2997078E5D3018331B0A0F3D
:1005B0001129D97FB73129A3CEEF66566FAAB1169C
:1005C0009B070010173F2130F9B49E0C42271830CA
:1005D0007975031BA9CFC7AA810C1BB73A06130074
:1005E000C82CE2FC570F48BAC220180606A8080516
:1005F00017B7D422337B2983053018531B6C18D7C7
:100600000065261D73BBAC30F46987CE2A1E00231B
:1006100089522D8860B7D5F2BC3B208F4813D38315
:100620003C393A502C1334274F3FED98057224186B
:1006300054291E00B4660A1B6CB73AAF9B322D8C4E
:100640001D0891061B300E2C9D00B43F8AA86571D1
:10065000B57039241D46746C518F48271A469F94F3
:1006600029670A00B43F8AA80E4D11CF16BD312963
:10067000D8481629D18D2DC4AA94290E051700B487
:1006800060A6EA120F662E5C3600B43F8AA8657138
:100690002070F3442D0E06B54600B40E2FE1CE5C5B
:1006A000089FBB13341805723A0F7CC6272C167EA0
:1006B000B5BB6F051855E100B42C167EB5BB04021E
:1006C00058500700C85E5329EB0E76635AFA080F9C
:1006D00011913927BB0805301E00B4D852A0A72BB2
:1006E000E67B29AA9A76350500B4D852A0A72BE656
:1006F0007B29AA0D0F0C0700B40D5C421D195F4841
:10070000780400B41259728200B408911B26662E38
:10071000D97FCF5D647C6B17901D8C42683C0AE6E4
:10072000D7C9C204AF44701323D3182F2600B46670
:1007300056E1CEEF7E20D0EE8209025AB969788F59
:100740001D792DD7EDAE0800B44B0BD6EAD724980F
:100750006CCE2A0DA411320D752C783096FE498886
:100760007E29D1C83B6B959C670B009E4143B728FF
:10077000616C8BB8B41A8C2BD65A9422342600B4F0
:100780008C1D9E5134C5167EE82A84087DA5E84557
:10079000AF680F7D3C2D3439920C008427175464C8
:1007A000D6FC3536C2F9B408695DB918971BA3B3F6
:1007B0001DD8130F5D09184800B4337B59361D4A04
:1007C00027D0C85A550C27D8F98CC7DB7CFE4913B3
:1007D0006B18D33648185CCB62002F36030F912E6E
:1007E000AA9A0EA71312290E2C34301A8B48313EC8
:1007F0002F522C271A3CA8D25A3CA403867A9FC8B1
:1008000057B24AD400B48C1D1BA99211692741C666
:1008100027D8790A96B841BC5A702BDA8A1B3595CD
:10082000B6EB0E76631D833C39DE0C1100B40D4D22
:100830001A279E75361DA93C1D164D10BABD632999
:10084000E010594630D2C53609421D8626CB921893
:1008500048240E197104004141255C5282CAD92CEA
:100860005A34442E450E7251F23A504BD6B9089480
:1008700077B7D4004141255C5282C5167EE82A181C
:100880000F30B43F8AA83FF8B87B18060E30D84323
:10089000F9895D17000E4D63CA76D630A32D130675
:1008A000B594290516BDD43A4D63EC041BB60E4D24
:1008B00063C5485337003541255C425DB6531B1D67
:1008C000D8B4C1DA8F583D094200B466084B2908F4
:1008D0000FB9792DDB697730D264AECB92580E9D7B
:1008E000057200B48C95211DD97FBC4CB2F00D86E9
:1008F000AFB9390C732339775133A087CC3E4A63A3
:1009000027183039A7F53F05161600B4660A1B6C88
:10091000B7E9FB1DE06935322DDB0E0F871D4B4E0D
:10092000672E195307E62316215F2D10173F21303C
:100930004138009176359633C5423DB9FA76025A70
:1009400034276982C4D2240E198AE11DB43F8AA8D3
:1009500085792C031933508BB8F72A391A210800EE
:10096000B43F8AA83595B6677406B54D130FF0C726
:100970000891AB1D7B624A39002B4A05722D851305
:10098000231D7642255C95B75E8AF8C4D0B465090C
:1009900019E103024A6C000402588833F82F3D46DF
:1009A000303F387E24A3B3B9BB1E0008665D68F8EB
:1009B000C452D9F468F82FD394760E05303648180F
:1009C0005CFE491E00D70472273541255C425DB6A6
:1009D000A34ECE2A180F30088CF4C9D400524B5CB9
:1009E0002B27A32D454D280517CE8C29B4D8C8AF89
:1009F00051B254702BDA5520C4C82246606F008F64
:100A00000C0F9A9235C30BA00A10CE45308C42FCD5
:100A1000BA19060C4241E41A469F1E000973B4D865
:100A20001A4DB8093A2A7B29A3E4BB8557A21207BD
:100A300000D9982487CC5E051A080F4624136762F4
:100A400029B41830790D7E744D0F112526BD1DD99E
:100A50007FB764AECB92580E9D05720800B4024A6F
:100A60003346F52C167EB5BBE041E4C44F2B3FCD99
:100A7000060E0F87DAF8B8331743B73128053085EB
:100A8000E0B5AAEB0E766300B408911B26662EC46F
:100A9000631A24278D7C67132E0805171D1A202C36
:100AA000D72984277B2941333129761BE88C07001D
:100AB000B416F21D0402586984CB2ED139349CC976
:100AC0002468041A255C5257542B244DF2C220137B
:100AD0006B85000E2A7B29187A452D6B061BB724DF
:100AE00029B4792DF9485329AA1A901B00B452D978
:100AF000F4C5D6393B331B0A0F11070D1700B43F5D
:100B00008AA860024A7EEAD264D6172F201B7B1A7D
:100B10001D1A121700100F0C35832069A6484CA52A
:100B200011463D09025AB91A469F39D6201875E573
:100B3000F9B4DB0E0F875E05599C00B49786AFB5FC
:100B400052165987228B788B5DAA163410C627DB84
:100B50009AF33BA2228C402600B44F599CB5631AED
:100B600024278D7C67132E120F66A78170332570A2
:100B70001859D3BBE04178200894779300B48C1DBA
:100B80004860280F0D3698160F5DC30F11C92866EF
:100B90005D2854432441708D2E13EEA1414E00B4C4
:100BA00079F2740F8F0730D04FF2A4515C0F0E0012
:100BB000B443AF2739866FBC4C46EC70B5D8328150
:100BC0005D30E0B744AB2806C4130F170800B438F3
:100BD0002B7CEA410A722D18ABE274943F3700B4C3
:100BE00084084BD630D0631A251769C9285411CD13
:100BF0006150B58B139FDBA0EA6302582986DD2183
:100C000000B4DB9AF368041A47A9672DA0131229D0
:100C10007D0F18E22875E82A661B20A3420800B45D
:100C20006D830617901D2C8626291A55A81A90A8A0
:100C30003FDD442E070F260E0530F97B2F00B46DE3
:100C4000830617901D86462246B7035916672D184E
:100C5000D73E463E0676962600B46D830617901D55
:100C6000D97FC30A915C2B3B38124D61E224878EF9
:100C700058795981D1D017544300B46D8306179029
:100C80001DD97FF19272825E71A876111D1A452ED0
:100C900084080D7E89B8DBA080009169EC4ACDB153
:100CA000559AB804025855960810BAD4C9A0360807
:100CB00000B459428F1D1159501241E40D0F85CED9
:100CC0002A1806A5296AA036CD060E0F87091946EF
:100CD0001700B4100F025A481D6D83061790224664
:100CE000B72805166C304B78216200B46D83061767
:100CF000901D52A0A72BE6EB0C4330D2280516041A
:100D000000B4182C05A80E3396B8E06935CB2E0731
:100D100075E5195F484E00B4120F662EF4540A367A
:100D20001D52AC7741E479F2740F8F0730D0024A3C
:100D300005025A477E71006D830617901DD0B46D71
:100D4000185C3668041A3AB081A447EE414E00F7A9
:100D500021E5F9B439D66F304A4B75057227BB02CD
:100D60004A06D10402586984CB2EBB3904A86B3FD4
:100D7000224630D013060C024400B4F721E548B2F5
:100D80002096FE4904025896FE49A691775946B02E
:100D90001DD17FDB19C3410E1700B4F721E50E4DBD
:100DA00011CA96665891F7C5080F0CFE49D1DB0EA3
:100DB0000F871D792D338000B4F721E5D97F6402B8
:100DC000589BAB0942280F462091982639271830A6
:100DD00052AE6200B4F721E5ACA9BA5E09425150A7
:100DE0009FD176040FC922531200B4F721E552486F
:100DF0002BCD060E0F87CC3A380518530400B4F7F4
:100E000021E579F24C063484B8D7C37C33304B16D5
:100E10001690222C9D2100B4F721E50D2CE13A1704
:100E20003FA60933288AB00730D118536DE700B4C4
:100E30001809025A342CBC7A12AC3FF02723024A1C
:100E400075B5100F0C358320F721024E00B4C1C5D3
:100E5000167EE82A7E205D10CE2A72635C2B2477F2
:100E600071481D65B12170B859ACA94C0F662EF7B9
:100E700021E5233FDC00B416670CCF3E213611CBB1
:100E80002E9C9B1B000E0FE82A7E20D0DB65B081D4
:100E9000A4EDBDBA3FDCC9DAD2342741BDD422BBB0
:100EA000D897078E5D30815DB6C82EB221057200DD
:100EB000B41806342741108582BA4C7A5AE12D05C0
:100EC00016BDD50627A0131229523F4D171D0D70D0
:100ED000358D5823165C3F0A0F87750400B4180639
:100EE000342752D9F40317E3722D72635CCBE50605
:100EF000189E482B00B4180634274110852D8D0FFD
:100F00001312291A3C70B876424706480800B418F4
:100F100006342784084BD6B9BB85C37C703927D0EB
:100F200019345F7E68AB0800B41806342741108579
:100F30002D2C423DB9FAAA1370025AE6853400B44A
:100F4000180634274110852D8CCF0D96524ED73080
:100F500052482B27D7C204AF288A09D34184AA97C5
:100F60004B5980000516BD5EE13F3B0CF2B6B4C1A3
:100F7000C3109AEA947B75051848280F0E061B0FBC
:100F800000382B4ECCD4BF2A17542DE0AC0B30D8F0
:100F900085B7BC1A370059BA086987F552A7B997BF
:100FA0003698BCD4BF2A69822FD3F4A94A36008B65
:100FB000139F0869B99C53204A0E1DD18805720EF3
:100FC000300516BDD4BF2A2C167EB5BB2C07752E56
:100FD000880516A00DC36300593C7745273396E773
:100FE000BC1018C34E67E5521171CB2ED0B4C13B73
:100FF00004B75A55088B116927FA846C1700B4237B
:10100000423F551D597F652639271830C1C37C489A
:10101000CB2ED0AA024A54A1043034E327C85A5533
:101020000C27D104A21207300E05170800B4C14CDA
:10103000FA85E12ED7C2201317105EDC21CFC77BC3
:101040001A5197B56F4620797500B4C1C54853B59C
:10105000631A24AB06185F135C111230C8742CF9A4
:10106000390A69E41A8F584B620F41037E245D00F0
:10107000B4C1E9FB1D119432135C118B0DEDAEA4CC
:10108000440BE61A551BB75A469F41410800B4C1AC
:10109000C2541312293F8AA8657120A31D2C162162
:1010A00070B8BB9E0F1124916B1350B5792D4B0B6B
:1010B000167ECC00B4C1C5423DB9BB85C22C209C74
:1010C0008F0E2C2ED1AAD6304F0A72C33800B4C16D
:1010D000C5423DB9BB85288AA8110F116929A621EF
:1010E000E1271830024A33465500B4C1E9FBCE8BE4
:1010F0001DD8024A7E29AA139DF0C71AF02C245D40
:1011000003024A7E2918463E4F1721025300B4C1FC
:101110005AE35227D10E0F6F5A469F7019D3C1E977
:10112000FB1DAE5C58D25E061350358D58197132D6
:10113000A400B4C12875190942CF7BC82D530853A8
:101140008992CB2E382B7C2918303541255C4248BA
:101150000A00B4C15EA5B5A00E0E48C34E2629C430
:101160000D4D984D601DD1725513090500B40D79D0
:10117000ECE4BB59763662B99CAFA65C875500B4E7
:10118000C1E9FB1D8D56303F3C76B8D70413F8C437
:101190003420163D39C627127507160F0C00B4C14E
:1011A000E9FB1D944D084B69740FA9B5C8C37C3386
:1011B0001700B4C17409422EC8031B7B95C9731371
:1011C0009D204B4E4D5DB6F91A901BE6139D20A74E
:1011D00013120700B4C14750811BB518ABBD16E60A
:1011E000792D18AF0E00B4C13B2C051B1D0EAD2E82
:1011F0000DA4B72416BD5A389CB7C3410E30AE19A2
:10120000B000B4C1240E9AEA43F9C8300E2A7B29F3
:101210001B7B1A4CADC220E0AC0B30D83F8F581668
:101220006BF8B85208114620B179770800B4C1C3F1
:10123000566D632718309E41D52DD704720EE66691
:101240001785037EB7BC2A660B301A3C39581A55ED
:101250000E1D9E4135410800B4C1BA4C7A5AE12DA9
:101260000516BD5E2F491875B02733363FF52C079C
:1012700075E5164D10C220135C42BC3E75080F2068
:1012800042403C780400B4C13B4F411D2C36E41B66
:101290008F76401DC4182C051B0EADE5D1DB360E34
:1012A000750400B4C1240E198AE11D0811AF468EE1
:1012B00058AE4241E4DB9A89B82C424FCBE5D08945
:1012C000E56BB81875B00E00B4C16478545C721D3B
:1012D000912B4E09D3180F1721CE2A081A096957E6
:1012E000A2120700B4C124916B13B01D792D3FE108
:1012F000414E1D66522416BD4CD8850E354100B4B2
:10130000C13E759C53B591110F4F2D9E96D34184CC
:10131000AA892BC5185C56B7229DACA22EBBE04112
:10132000780400B4C1C5AE4227164D10220572F1F3
:10133000079C2416BD3E34E7D30618024A9BCB0B0C
:1013400000B4C13A504BD6B9BB85C6BA0833F008D1
:10135000170C0F1064088D690400B4C15EA5B55C5C
:10136000113B38074800B4C128751909421D08A768
:10137000692D0E0F6F5A469F530853890B00B4C155
:101380003A504BD6B90E4D1A6327D166172F92509B
:101390000400B4C1D5F2740F8F0730D0947E2008BA
:1013A000100F1313764000B4C1CAD9F45A34442E36
:1013B000668212665DADCF16BDE9A5204A4B59BDC8
:1013C00000B4C13A0A59A8913FCFC748051B1D4B2D
:1013D0000BA0524E09D313EEA141E4390D2C0700A6
:1013E000B4C1D50A72EABB081A469C3B97A8164DB1
:1013F00010240C29974B5929C49E96D3418405008B
:101400000000000000000000000000008040C080DC
:10141000402020101010101010101010102020C0AC
:10142000A03050A0C000000000000000000000003C
:1014300000000000000080808080F807021904FA94
:10144000070000000432797959300000C001317B77
:10145000FE010600013E40E060C000000000000008
:10146000402010080601000306091010D030C807FC
:10147000000000408000000080C0E0E8E8E7400095
:1014800081722CC40404020100010618608000006F
:10149000000000000080403028448201000087786E
:1014A000000000000001020204E51D090908080609
:1014B00001000000834C300000000000000106F82D
:1014C0001020408000000000000000010101010622
:1014D0000A1464886810106C8262110D0302020203
:1014E00002010101000000000000804020180601F8
:1014F000000000010EF000000000000000000000ED
:101500000000000001060C136080000000000000D5
:101510000000000000E010080403000000000000CC
:1015200000000000000FF0000000000000000000BC
:101530000000000000000000000001FE00000000AC
:101540000000000000FF000000000000000000009C
:1015500000000000C03F000000000000000000008C
:10156000000000000000000000C0301F000000006C
:1015700000000000001FE00000000000000000006C
:10158000000000000000000000000000000000005B
:10159000000000000000000000000000000000004B
:1015A000000000000000000000000000000000003B
:1015B00000000000000000000080402020101010FB
:1015C00010101010101010202040800000000000AB
:1015D000000000000000000000000000000000000B
:1015E000000000000000E01C0300000000000432C6
:1015F000797969300000C001317A7D6EF000000019
:1016000000000000000000000000000000000000DA
:101610000000000000000738C0000000004080000B
:10162000000000C0E0E8E8E7C00080700F000000A4
:1016300000000000000000000000000000000000AA
:10164000000000000000000087780000000000019A
:10165000020204E41D090909080601000000000057
:10166000000000000000000000000000F804040476
:10167000020202020201010101060A1464886810D4
:10168000106C8262110D03020202020404040404BD
:1016900008080838C00000000000000000FF00003B
:1016A000000000000000003EC08080000000010635
:1016B0000C1360800000000000000000007C80002F
:1016C0000000000007F800000000000000001FE01C
:1016D0008000000000000000070405070808080853
:1016E00008080810111618F01010102020207F8014
:1016F0000000000000001FE0000000000000C03FEC
:1017000001020C10101010101010305050901030BA
:1017100060A02020202020213E1010101010101F4B
:1017200000000000000080631C00000000000000BA
:1017300000000000000000000000000000000000A9
:101740000000000000000000000000000000000099
:101750000000000000000000000000000000000089
:1017600000000080402020101010101010101010E9
:101770001020204080000000000000000000000059
:101780000000000000000000000000000000000059
:10179000E01C0300000000000011092A0A100000EC
:1017A000C0021209291EF000000000000000000025
:1017B0000000000000000000000000000000000029
:1017C0000738C00000000040800000008040404812
:1017D0004847800080700F000000000000000000FB
:1017E00000000000000000000000000000000000F9
:1017F00000008778000000000001020204E41C08D9
:1018000008080806010000000000000000000000B9
:10181000000000000000F8040404020202020201B9
:10182000010101060A1464886810106C8262110DAF
:101830000302020202040404040408080838C00079
:1018400000000000000000FF000000000000000099
:10185000003EC0808000000001060C136080000084
:10186000000000000000007C80000000000007F87D
:1018700000000000000000001FE0800000000000E9
:1018800000000704050708080808080808101116D2
:1018900018F01010102020207F80000000000000B1
:1018A0001FE0000000000000C03F01020C101010FB
:1018B0001010101030505090103060A020202020C8
:1018C00020213E1010101010101F0000000000001A
:1018D00080631C0000000000000000000000000009
:1018E00000000000000000000000000000000000F8
:1018F00000000000000000000000000000000000E8
:1019000000000000000000000000000000804020F7
:101910002010101010101010101010202040800007
:1019200000000000000000000000000000000000B7
:1019300000000000000000000000E01C03000000A8
:1019400000000010082808100000C0001008291E20
:10195000F000000000000000000000000000000097
:10196000000000000000000000000738C000000078
:101970000040800000002040808888474020807020
:101980000F00000000000000000000000000000048
:101990000000000000000000000000008778000048
:1019A00000000001020204E41C0808080806010007
:1019B0000000000000000000000000000000000027
:1019C000F8040404020202020201010101060A14E1
:1019D00064886810106C8262110D03020202020416
:1019E0000404040408080838C000000000000000D7
:1019F00000FF0000000000000000003EC0808000EA
:101A0000000001060C1360800000000000000000D0
:101A1000007C80000000000007F8000000000000CB
:101A200000001FE080000000000000000704050720
:101A30000808080808080810111618F010101020DF
:101A400020207F800000000000001FE00000000058
:101A50000000C03F01020C10101010101010305088
:101A60005090103060A02020202020213E10101027
:101A70001010101F00000000000080631C00000018
:101A80000000000000000000000000000000000056
:101A90000000000000000000000000000000000046
:101AA00000000000000000000000002045414F54ED
:101AB0005349524E4C4344554D504847732546595F
:101AC0004256574B515320257373204520455220D1
:101AD00043494E2041205445534420205354204F25
:101AE000205445524552204E204F4E5920204954F3
:101AF0004F414E415254494345454441545345207A
:101B00004420424541414C205053544E474D455688
:101B1000455448204F48454954204D4C45472045A1
:101B20004E434F2048524F4E544C41495320464457
:101B30004541534F554F524E4420524C20554E2054
:101B400057454F52414C4C204C494F41444F4D4E0C
:101B5000534E45204550524D414149204E50454F2E
:101B6000464C4F4554454D2025454C524949434725
:101B7000454620204755524C4952544E43464F4FFC
:101B8000544E4F4D50434C5553494D54535441526C
:101B900053504C4449424551554354545253494F74
:101BA000434849484143415541494C4545504F4EB2
:101BB000414C59484F434B4349414353534F564D72
:101BC0004945434348414D534F48204649524E49A9
:101BD00047574152594F534F504E494B204944416A
:101BE00020555450414F574D4F4952494545464164
:101BF000565244257320455320455220494E474EA6
:101C0000472045442020494E544F2020544F5445EE
:101C100052732043204345454F2043454F205448AD
:101C200020434F4F4E2020524520414E4E442054D9
:101C30004845204F4620444554494F494F4E205077
:101C4000525320545320414F4620494E20414E4488
:101C5000414C2020257320464F564552414C4C495B
:101C60005320434C4120535450524F45414441521C
:101C700054204845732048434F4D41544520495313
:101C80004F554E4E54204E53204C5920454E5445EE
:101C9000205420434C545320484541205345204D67
:101CA000454F5645484520452041204D41554E441D
:101CB0005345535245534F52204C4149494E54418C
:101CC000544941542041532041494D204E4F5541E4
:101CD0005254494E525445E013C113A71392137E38
:101CE0001366135A1341132313FF12E412C812A3ED
:101CF00012861258122D120212E611D411B2119E40
:101D0000117F116D11521132110E11EA10CE10B463
:101D1000108E1070104A102D10FE0FD80FAF0F96B6
:101D20000F810F640F3F0F280F0E0FF50EDD0EB061
:101D30000E850E760E4D0E2F0E170EFE0DEA0DD4EB
:101D40000DB80D9A0D7A0D4F0D370D170D010DEBD6
:101D50000CD20CB10C9A0C7A0C590C3E0C1F0C01D5
:101D60000CDF0BCE0BB00B9F0B7D0B590B3B0B15F8
:101D70000BFE0AED0AD30AB00A880A5D0A310A1C72
:101D80000AFF09DD09C509AB09970979096009331B
:101D9000090B09E308CA08B6089508740857082D06
:101DA000080508DA07B9079B077F076B0748072E66
:101DB0000709070307F806E906DA06C406B8069A13
:101DC000068A067F0664064A0634060F060106E008
:101DD00005C3059E0583055E053F0519050305E45A
:101DE00004BF04B0048A046D044A0420040204DF22
:101DF00003B80394037403550345031D03FD02E771
:101E000002C902A2028702690256023E0227021795
:101E1000020202F301D701BD019401730154013D97
:101E2000011F010001E400C900AC00000000000037
:101E30003E5B4F5B3E3E6B4F6B3E1C3E7C3E1C1838
:101E40003C7E3C181C577D571C1C5E7F5E1C001896
:101E50003C1800FFE7C3E7FF0018241800FFE7DB8A
:101E6000E7FF30483A060E2629792926407F0505E6
:101E700007407F05253F5A3CE73C5A7F3E1C1C0823
:101E8000081C1C3E7F14227F22145F5F005F5F06E8
:101E9000097F017F006689956A606060606094A236
:101EA000FFA29408047E040810207E201008082A4F
:101EB0001C08081C2A08081E101010100C1E0C1EEE
:101EC0000C30383E3830060E3E0E06000000000092
:101ED00000005F00000007000700147F147F142437
:101EE0002A7F2A12231308646236495620500008BC
:101EF000070300001C2241000041221C002A1C7F15
:101F00001C2A08083E0808008070300008080808ED
:101F100008000060600020100804023E5149453E60
:101F200000427F400072494949462141494D3318DA
:101F300014127F1027454545393C4A494931412112
:101F40001109073649494936464949291E000014F6
:101F5000000000403400000008142241141414143E
:101F600014004122140802015909063E415D594EF0
:101F70007C1211127C7F494949363E414141227F02
:101F80004141413E7F494949417F090909013E419B
:101F90004151737F0808087F00417F410020404184
:101FA0003F017F081422417F404040407F021C02D5
:101FB0007F7F0408107F3E4141413E7F09090906A9
:101FC0003E4151215E7F091929462649494932037C
:101FD000017F01033F4040403F1F2040201F3F4002
:101FE00038403F63140814630304780403615949BB
:101FF0004D43007F4141410204081020004141410E
:102000007F040201020440404040400003070800F2
:1020100020545478407F2844443838444444283875
:102020004444287F385454541800087E090218A4E8
:10203000A49C787F0804047800447D400020404040
:102040003D007F1028440000417F40007C0478045C
:10205000787C080404783844444438FC1824241854
:1020600018242418FC7C08040408485454542404FC
:10207000043F44243C4040207C1C2040201C3C4029
:1020800030403C44281028444C9090907C44645448
:102090004C4400083641000000770000004136083B
:1020A0000002010204023C2623263C1EA1A161126B
:1020B0003A4040207A385454555921555579412198
:1020C00054547841215554784020545579400C1E81
:1020D0005272123955555559395454545939555429
:1020E00054580000457C410002457D420001457C7A
:1020F00040F0292429F0F0282528F07C545545008B
:102100002054547C547C0A097F493249494932326F
:1021100048484832324A4848303A4141217A3A42A6
:10212000402078009DA0A07D39444444393D404082
:10213000403D3C24FF2424487E4943662B2FFC2F3E
:102140002BFF0929F620C0887E09032054547941C9
:102150000000447D413048484A32384040227A00ED
:102160007A0A0A727D0D19317D2629292F28262900
:1021700029292630484D4020380808080808080852
:1021800008382F10C8ACBA2F102834FA00007B0092
:102190000008142A142222142A14089500220095FB
:1021A000AA005500AAAA55AA55AA000000FF0010CF
:1021B0001010FF00141414FF001010FF00FF101087
:1021C000F010F0141414FC001414F700FF0000FFCA
:1021D00000FF1414F404FC141417101F10101F1027
:1021E0001F1414141F00101010F0000000001F1026
:1021F0001010101F10101010F010000000FF101031
:1022000010101010101010FF10000000FF1400003C
:10221000FF00FF00001F10170000FC04F414141747
:1022200010171414F404F40000FF00F7141414142D
:10223000141414F700F7141414171410101F101F9F
:10224000141414F4141010F010F000001F101F00EC
:1022500000001F14000000FC140000F010F010102B
:10226000FF10FF141414FF141010101F00000000C2
:10227000F010FFFFFFFFFFF0F0F0F0F0FFFFFF00B6
:1022800000000000FFFF0F0F0F0F0F3844443844C9
:102290007C2A2A3E147E02020606027E027E026329
:1022A000554941633844443C04407E201E200602C8
:1022B0007E020299A5E7A5991C2A492A1C4C7201A5
:1022C000724C304A4D4D303048784830BC625A46E6
:1022D0003D3E494949007E0101017E2A2A2A2A2AD7
:1022E00044445F444440514A444040444A514000C1
:1022F00000FF0103E080FF000008086B6B08361246
:10230000362436060F090F060000181800000010CA
:1023100010003040FF0101001F01011E00191D17B0
:1023200012003C3C3C3C0000000000F0F89C8E8712
:1023300083878E9CF8F00000FEFF0303030303076E
:102340000EFCF80000FEFF0303030303070EFCF876
:102350000000FFFF00000000000000FFFF0000FE83
:10236000FF8383838383C7EE7C380000F8FC0E076D
:10237000030303070EFCF800003F7FE0C08080C02D
:10238000E07F3FFFFF01010101010101FFFF0000AC
:10239000FFFF0C0C0C0C1C3E77E3C100007FFFC05C
:1023A000C0C0C0C0E0703F1F00001F3F70E0C0C051
:1023B000C0E0703F1F00007FFFC1C1C1C1C1E37712
:1023C0003E1C00001F3F70E0C0C0C0E0703F1F0017
:1023D0000000000001FFFF01000000D5F08D14A1F6
:1023E000C881CFD9F1AF20007F3FC02E6EB7DBEDA3
:1023F00076BBDD6EB7DBED76BBDD6EB7DBED76BBB6
:10240000DD6EB7DBED76BBDD6EB7DBED76BBDD6E8B
:10241000B7DBED76BBDD6EB7DBED76BBDD6EB7DB34
:10242000ED76BBDD6EB7DBED76BBDD6EB7DBED7653
:10243000BBDD6EB7DBED76BBDD6EB7DBED76BBDD0E
:10244000AEA34FA7A34BA7D3E9E0A3AD75D68EEEFD
:10245000EC524925E7CD2E955472AC29B4A5D36131
:102460006999CE473BF696E9743E5685B4E997E9FB
:102470007CB4E36F6B9DB5F3295245369B82A4B6BD
:10248000D6593B7D76A99C534E39E594534E39E598
:1024900094534E39E594734A6E43A3D4E97494CEB1
:1024A00056B29295FA38B3D2A5634D3B974A85B19F
:1024B0005C2AD7B94ECE295D369D779C8E332B5D35
:1024C0003AD6B473A95468DC5A67EDF0DDD63A6B9E
:1024D000E74B6F9574D249275D29ABACB2AA9C74C7
:1024E000D24927955D87497BE73A79932AD7B9CEB8
:1024F000757256E5D2E9BC62FC49B395EC64744947
:1025000029D3D129D7B9CE75725227B3E97C30D2FD
:10251000D63A6B87EFB6D6593BFED2DBEDECE9ED50
:10252000762CCE3A6B3E9D4E479C4BA552A954CA81
:1025300071CE9A4F67A3CDC79A4FA7D3B10E8B6DBB
:10254000ADB376F82EBDDD6EB7DBED76BBDD6EB7D5
:10255000DBED76BBDD6EB7DBED76BBDD6EB7DBEDBD
:1025600076BBDD6EB7DBED76BBDD6EB7DBED76BB44
:10257000DD6EB7DBED76BBDD6EB7DBED76BBDD6E1A
:10258000B7DBED76BBDD6EB7DBED76BBDD6EB7DBC3
:10259000ED76BBDD6EB7DBED763BD8457F3F80DC6B
:1025A00068E9D49D56775ADDEA761DE77667B76EFF
:1025B0003BAD724EDD6ABB5D3BA928A59272BBDCC8
:1025C000AE959DD16E7576A9E4D0547ABBDD6EB719
:1025D000DB21EEF47629DD52BAA5926369ABECAE4D
:1025E00076F1A5D7DBED76B98D564985242515A959
:1025F000924A66B7CA2A3B0EA34D479B5D2A259790
:10260000DB743A9D5D2AA92C9CFEED729DEB5CE784
:102610003AD7B964AD88DB2E79F95E6ED776DB7672
:102620006DB78C52599D7DA92C1F1FA573F255D7EC
:1026300075EAE5E5DD7EBBD4F95677A55E6DCB295D
:10264000DB9D73CE3977563946BEB7CBED20B6B297
:10265000D9EC721BDCAE643A3F9992E9B422533252
:102660009D8E4EC9743A3A25D3E9F0B4542E5DC913
:102670004AE6951D49E9B492E9F896E9FC485232D8
:102680009D9F7599CE8FA5653A3F92944CC7B74CE4
:10269000E72753329D9F2CAD64746925E35BA6F355
:1026A0009329F2B492D129994E47A7647E9956A4F2
:1026B0008ADFB974B4CEA5F38ACBB9CE753AAECE63
:1026C00075AE738EAB739DEB9CC3D156F99C734E64
:1026D000E7941C6B8E5BF9744E21C9E9744E912A04
:1026E0009FCE292439974E3B1C399D8ECBB974DA85
:1026F0007139978E39E7749C8ED3B974DA71399D2C
:102700008E2EE7745C9DEB5CE71C97E39ACD715EBF
:102710005C000C1C3C1C0C000000000000000000D1
:102720000030383C38300000000000000000007F1E
:102730003FA0DD743ABBAC64252BD7B94EA5529DA2
:10274000EB542A954AA552A954AE9295AC7C3A9D79
:10275000CEA7F3F97C3E905CCBCE65B395FA5CE7EF
:102760003AD7B9CE75AEBBBA2B5595FB5CE752A9EB
:10277000542AD7B94E56729DAE64253B95EBA4B250
:10278000E9743AAD92A7F20E453578A06C3A5BB980
:102790004EA5B79D4BA552B94AE6D30A8F5979A5E4
:1027A00054A9CF75EE729763B2DBED765BC9743ACC
:1027B0009D4EA7D3E9743A9D5E67B7E974BAD5DD3B
:1027C0004AA753A95C2B95F36ED9A95C3EF8DCFBB4
:1027D000BB6C369BEECFE5B3134D149F777927F38F
:1027E000F9F0946EF7AED2D9DA8732E5F7E97C3AA0
:1027F0009D4E67D339E5B6B956E79CCCA7D369257A
:10280000B329C759178AE2B7A5ABAF57A954575791
:10281000AAB6F9AA553E9FCF076FE6D3F9743A9D41
:10282000EC64A597B74B754EB96C72999C3D9D4F62
:10283000E7D3E974B2923BA5564AA6F3E5543E9F0E
:10284000CEA7B7F9743A9D4E6FB7CB4A2AB7DC2EA4
:102850006BD5A5543A9D4EE7D3E974369DCE66E517
:10286000E9A4F49DDC65B3B9CA55B2929D4B757766
:10287000D5AA7795F610723E9D4FE7D3F9743E9D29
:102880004FE7C353AB2BD5C9F894977CEE9592EBE9
:10289000B4532F9977BBDDA4DD5FABD0BEEC5C2ACF
:1028A00095EA64552ED5B9CE29974EA7034D6431CC
:1028B000B8CFE7536BE55263489D5C2657D96C3619
:1028C0009B0D43CAA5D3E9743A9B4EA7D3D9743A5A
:1028D000D0A7080B00020202000009040000010258
:1028E0000200000524001001052401010104240256
:1028F00006052406000107058103100040090401B4
:1029000000020A00000007050202400000070583DC
:10291000024000000403090412010002EF0201401A
:102920004123368000010102030141726475696E22
:102930006F204C4C430041726475626F7900E22352
:1029400011241FBECFEFDAE0DEBFCDBF13E0A0E061
:10295000B1E0ECECF1E602C005900D92AA39B107A6
:10296000D9F729E0AAE9B3E001C01D92A234B20769
:10297000E1F714E1C0EAD4E104C02197FE010E940E
:10298000F02DCF39D107C9F70E9409240C94E43007
:102990000C9400002F923F924F925F926F927F9221
:1029A0008F929F92AF92BF92CF92DF92EF92FF925F
:1029B0000F931F93CF93DF9330E0F901E80FF91FD6
:1029C0001E161F060CF098C0803891050CF094C0BC
:1029D000FB01E00FF11D1E161F060CF08DC06034C8
:1029E00071050CF089C0DB0177FF04C0AA27BB2763
:1029F000A61BB70BA770BB27EB0177FD2796E3E07B
:102A0000D595C795EA95E1F777FF07C0219768E06C
:102A100070E0FB01EA1BFB0BDF01069506950695AE
:102A2000602E712C7A01AE015695542F442757958C
:102A30004795480F591F40525B4FBE01E8E0F0E058
:102A40002F014A1A5B0A6F3FFFEF7F070CF444C067
:102A50006C0110E000E04A01F0E88F0E911CD7FCF9
:102A60002EC06F3F760709F45AC0F701E00FF11F3F
:102A7000E4915A01A00EB11EF0E01F010A2E01C020
:102A8000220C0A94EAF7F50130802328208210975F
:102A9000B1F06730710599F0F701E00FF11FE49193
:102AA0005401A00EB11EF0E01F01042C02C03594A9
:102AB00027940A94E2F7F5013080232820820F5FE3
:102AC0001F4FFFEFCF1ADF0A021713072CF4E0E8BD
:102AD000CE16D10409F0C3CF6F5F7F4FE20EF31E15
:102AE00040585F4FFB01EC1BFD0BE615F70524F486
:102AF0006830710509F0A7CFDF91CF911F910F9139
:102B0000FF90EF90DF90CF90BF90AF909F908F900D
:102B10007F906F905F904F903F902F900895109707
:102B200009F0BACFCCCFE0EEF4E0A0E0B8E000804E
:102B30000EBC8111012C1197A0FDFDCF0192B9F7B8
:102B40000DB408959C01480F592F511D4115510591
:102B500061F1803891054CF54138510514F040E899
:102B600050E0421BCB018770992791E001C0990F7B
:102B70008A95EAF777FF02C0695F7F4FFB0183E028
:102B8000F595E7958A95E1F7F695FE2FEE27F795EF
:102B9000E795E20FF31FE052FB4F415030F0819177
:102BA000DF011197892B8C93F8CF0895CF92DF9294
:102BB000EF92FF92621773078407950754F4B62FBC
:102BC000A72FF82FE92FCA01B9012B2F3A2F4F2F2A
:102BD0005E2F1616170618061906ECF412161306C1
:102BE00014061506FCF4F0E5CF2EF3ECDF2EE12CF5
:102BF000F12CC21AD30AE40AF50A6C157D058E057C
:102C00009F0514F5620F731F841F951FFF90EF90AF
:102C1000DF90CF900895611571058105910511F040
:102C200057FD0DC0C12CD12C7601C394C21AD30A12
:102C3000E40AF50AC616D706E806F9061CF361E0B1
:102C400070E080E090E0E2CF60E573EC80E090E03F
:102C5000DDCFFC018091DB04882311F13FB7F894AC
:102C600082E08093E9002091F200822F90E0181614
:102C7000190614F481E090E0882339F0289844E69E
:102C80004093DA044091F1004083222339F02091EF
:102C9000F200211103C02BE62093E8003FBF089506
:102CA0008FEF9FEF08952FB7F89483E08093E900AA
:102CB0009091E800892F807295FF04C09091F200F6
:102CC00080E4891B2FBF08958091D20481110DC02B
:102CD00082E08093CE0484E08093CF041092D104EC
:102CE0001092D00481E08093D2048EEC94E0089599
:102CF000CF93DF931F92CDB7DEB76983DC01ED91EF
:102D0000FC910280F381E02D41E050E0BE016F5F55
:102D10007F4F09950F90DF91CF91089583E08093C5
:102D2000E9008091F200882319F08AE38093E8009B
:102D300008950E94531690E00895CF93DF931F9259
:102D4000CDB7DEB7FC018485958597FD08C02FEFD0
:102D50003FEF358724870F90DF91CF910895CE0103
:102D600001960E942916019719F4898190E0F3CF0A
:102D70008FEF9FEFF0CF0F931F93CF93DF931F92AF
:102D8000CDB7DEB78C01FC018485958597FF0BC01C
:102D9000CE0101960E942916019771F4898190E075
:102DA000F80195878487F801848595850F90DF91D8
:102DB000CF911F910F9108958FEF9FEFF1CFFC01FD
:102DC0008485958597FD0BC09FB7F89482E080932A
:102DD000E9008091F2009FBF90E0019608959FB7AF
:102DE000F89482E08093E9008091F2009FBF90E028
:102DF00008954091C8045091C9042091C6043091AF
:102E0000C70442175307B4F49091E8009570E1F3BA
:102E10009091E80092FD19C08093F1008091C80460
:102E20009091C90401968F739927892B19F48EEF1D
:102E30008093E8008091C8049091C9040196909312
:102E4000C9048093C80481E0089580E00895DF926A
:102E5000EF92FF920F931F93CF93DF93D82E8A01A7
:102E6000EB017B01E40EF51ECE15DF0559F0D7FE10
:102E700012C0FE0184910E94F91621968111F4CFAF
:102E80000FEF1FEFC801DF91CF911F910F91FF90BE
:102E9000EF90DF9008958881EECF0F931F93CF932B
:102EA000DF931F92CDB7DEB782E0898342E450E022
:102EB00062ED78E280E80E9427170E946416DC0128
:102EC00012960D911C910115110589F0D801ED9113
:102ED000FC910280F381E02DBE016F5F7F4FC8013E
:102EE000099597FD04C0F80100851185ECCF898113
:102EF0000F90DF91CF911F910F910895615030F0A5
:102F00002091F100FC0120830196F8CF289884E6F7
:102F10008093DA0408953FB7F8948091C2049091A9
:102F2000C304A091C404B091C50426B5A89B05C0F4
:102F30002F3F19F00196A11DB11D3FBFBA2FA92F38
:102F4000982F8827BC01CD01620F711D811D911D35
:102F500042E0660F771F881F991F4A95D1F70895A1
:102F60008F929F92AF92BF92CF92DF92EF92FF9299
:102F70006B017C010E948B174B015C01C114D104D1
:102F8000E104F104B9F00E948B17681979098A09E4
:102F90009B09683E73408105910580F321E0C21AC8
:102FA000D108E108F10888EE880E83E0981EA11C84
:102FB000B11CE4CFFF90EF90DF90CF90BF90AF9027
:102FC0009F908F9008958F929F92AF92BF92CF92D1
:102FD000DF92EF92FF920F931F93CF93DF936C01D9
:102FE0007B018A0180910B03882309F45CC08091E6
:102FF000DB04882309F457C08091CD0480FF05C00D
:103000008091E00082608093E000E801B12C8AEFBB
:10301000A82E93E0892E2AE3922E209711F4BB204C
:10302000D9F10E94531681110AC0AA94AA20D9F19D
:1030300061E070E080E090E00E94B017EECF8C1766
:103040001D0611F00CF08C2F9FB7F8948092E900C8
:103050002091E80025FD02C09FBFDFCF282F30E080
:10306000C21BD30BF701815020F041914093F10036
:10307000FACFE20EF31EBB2021F09092E800B12CB3
:10308000EBCF8091E80085FDE7CF9092E800BB246C
:10309000B394209709F3F3CF5D9884E68093CC0432
:1030A000101611063CF081E090E0F60193838283D4
:1030B00010E000E0C801DF91CF911F910F91FF90C8
:1030C000EF90DF90CF90BF90AF909F908F9008953A
:1030D000AF92BF92CF92DF92EF92FF920F931F9326
:1030E000CF93DF936C017B018B01040F151FEB0164
:1030F0005E01AE18BF08C017D10759F06991D6011B
:10310000ED91FC910190F081E02DC6010995892B8C
:1031100079F7C501DF91CF911F910F91FF90EF904B
:10312000DF90CF90BF90AF9008952D9A0895BC0185
:1031300090E080E00C94B0178FB18095807F669B03
:1031400088601C9B8460089581E083BF889513BECE
:10315000089580E0E0EEF4E081118FEF0024819388
:103160008193819381930394D1F71092DD0410929F
:10317000DC041092DF041092DE0408959091A40400
:10318000982329F49091A504982381E009F480E024
:103190000895CF93C82F0E949C18982F9C2381E0FC
:1031A0009C1380E0CF91089580E00C9493151F93B9
:1031B000CF93DF93DC0130E020E050E040E011E00D
:1031C000C1E0D0E02617370791F114968C9114973F
:1031D000811115C014961C93149712968D919C9191
:1031E0001397ED91FC911197E80FF91FE491159653
:1031F000EC931597019613969C938E9312971496C1
:103200009C91149715968C911597892349F0FE018E
:10321000022E02C0EE0FFF1F0A94E2F74E2B5F2B27
:10322000990F14969C9314972F5F3F4FCBCFCA01F1
:10323000DF91CF911F9108954F925F926F927F928D
:103240008F929F92AF92BF92CF92DF92EF92FF92B6
:103250000F931F93CF93DF9300D000D000D0CDB752
:10326000DEB79A8389831C821B821D821E8268E0DE
:1032700070E0CE0101960E94D71801967C0168E0AB
:1032800070E0CE0101960E94D7188C0161E070E0D9
:10329000CE0101960E94D7181E141F040CF06CC0BA
:1032A00098012F5F3F4F121613060CF065C069019D
:1032B000F3E0D594C794FA95E1F727703327232BD1
:1032C00019F09FEFC91AD90A982E55245394812CCE
:1032D00010E000E0B12CA12C44244394AC14BD04B4
:1032E0000CF04AC066246394712C61E070E0CE015A
:1032F00001960E94D718892B21F482E0680E711C78
:10330000F4CFB301CE0101960E94D718019630E0A8
:1033100020E02817390770F591108528652D660F74
:1033200031F5A5014F5F5F4F4930510580F40038FA
:1033300011056CF4F501F695FE2FEE27F795E7954C
:10334000E00FF11FE052FB4F7081872A80820F5FF0
:103350001F4F552453940E151F052CF05A01552468
:10336000539410E000E02F5F3F4F862ED2CF562EB1
:10337000682DF9CF9424B2CF26960FB6F894DEBF0D
:103380000FBECDBFDF91CF911F910F91FF90EF90B6
:10339000DF90CF90BF90AF909F908F907F906F9075
:1033A0005F904F90089580389105B8F460347105AE
:1033B000A0F420E191E061FD94E060FD990F62FDD1
:1033C0009295687F269FD0011124A80FA052BB4F71
:1033D0008C9140FF03C0892B8C930895909589238D
:1033E000FBCF2F923F924F925F926F927F928F927C
:1033F0009F92AF92BF92CF92DF92EF92FF920F9384
:103400001F93CF93DF93EC018B017A016901C61AF8
:10341000D70AD7FE03C0D194C194D10847018C1AB2
:103420009D0A97FE03C09194819491088C149D0489
:1034300054F49E2D8F2D7901292F382F9C2F8D2FFD
:10344000E801092F182FEC16FD0654F4902F812F58
:103450008901292F382F9C2F8D2FE701E92EF82E77
:1034600017012C1A3D0A2901401A510A57FE03C0C0
:10347000519441945108310137FE03C08FEF681A0F
:10348000780A759467948FEF021713070CF481E0A4
:10349000A82E880FBB08EC16FD06A4F041E0BE0183
:1034A000C8018C149D0414F0B801CE010E94D319F8
:1034B0006418750877FE04C00A0D1B1D620C731C8E
:1034C0002196E9CFDF91CF911F910F91FF90EF905F
:1034D000DF90CF90BF90AF909F908F907F906F9034
:1034E0005F904F903F902F9008952F923F924F9270
:1034F0005F926F927F928F929F92AF92BF92CF9284
:10350000DF92EF92FF920F931F93CF93DF9300D040
:1035100000D000D01F92CDB7DEB76D30D9F030901B
:1035200001014090DC045090DD04832D90E09F83E6
:103530008E836A3051F51092DF041092DE0423E08E
:10354000880F991F2A95E1F7480E591E5092DD0405
:103550004092DC0481E090E027960FB6F894DEBF3D
:103560000FBECDBFDF91CF911F910F91FF90EF90D4
:10357000DF90CF90BF90AF909F908F907F906F9093
:103580005F904F903F902F900895A090DE04B090F0
:10359000DF0495E0699FB0011124FB01E55DF14E68
:1035A0003F016501212CF5E02F1629F1C301019699
:1035B000F301F491F9833C01420128E02A838981D7
:1035C00081708D8310E000E00315D0F4F801EC0D5C
:1035D000FD1DFC83EB83F12CE12CE31470F4B401AA
:1035E0006E0D7F1D4D818B819C810E94D319FFEF51
:1035F000EF1AFF0AF2CF1982DFCF0F5F1F4FE4CF20
:103600002981269529838A8181508A83EE81FF81D1
:103610008E0E9F1E8111D3CF2394CE0EDF1EF6E0B7
:103620002F12C1CFC501329C800D911D11249093A2
:10363000DF048093DE048ECFDF92EF92FF920F9330
:103640001F93CF93DF937C01EB01D22E8B01040FEC
:10365000111DC8010134110514F080E490E0C81771
:10366000D9073CF44D2DBE01C7010E94D319219604
:10367000F0CFDF91CF911F910F91FF90EF90DF90EE
:103680000895EF92FF920F931F93CF93DF937C01E6
:103690008B01C42FD22F6034710514F40E94A2153F
:1036A000B8016D0F711D615071096034710520F40E
:1036B0004C2FC7010E94A21521E04D2FB801C70170
:1036C0000E941C1BC7018C0F911D21E04D2FB801DA
:1036D0000197DF91CF911F910F91FF90EF900C9484
:1036E0001C1BCF92DF92EF92FF920F931F93CF9309
:1036F000DF938091370990913809892B09F4C4C070
:10370000D0903209DA94DA94E0903609EA94EA9497
:103710000091350910E00F5F1F4FC0913409D0E0D0
:103720002196EC0EFD2EF11CCE15DF0544F420E0B1
:103730004D2DB801CE010E941C1B2196F5CF209182
:103740003009422F50E0C0913409C40FD52FD11D4C
:1037500021978091360990E0841B950B8C0F9D1F5B
:1037600030913A09239F801991091124209135093C
:1037700030E02E5F3F4F40913B09841B91099093AD
:10378000DF048093DE043093DD042093DC0410E03A
:1037900080913A09181700F5E091390980913709AD
:1037A00090913809E80FF92FF11DE10FF11D6081AB
:1037B000662391F0809136098C0F9D2F911D2091E9
:1037C000DE043091DF048217930734F08EE399E032
:1037D0000E94751A1F5FDCCFD0903209DA94DA9418
:1037E000E0903009EA940091350910E00F5F1F4F17
:1037F000C0913409D0E02196EC0EFD2EF11CCE15BF
:10380000DF0544F420E04D2DB801CE010E941C1BC1
:103810002196F5CFF0903209FA94FA94809130090C
:103820009EEFC92EC80E0091350910E00F5F1F4FA3
:10383000C091340990913609C90FDD27DD1FC81BDF
:10384000D1092196CC0EDD2ED11CCC15DD0544F41A
:1038500020E04F2DB801CE010E941C1B2196F5CF10
:103860006091350970E080913409209132094091CE
:10387000360990E0DF91CF911F910F91FF90EF906B
:10388000DF90CF900C94411BDF91CF911F910F914E
:10389000FF90EF90DF90CF900895CF92DF92EF925C
:1038A000FF92CF93DF93E2E0F1E0C0E0D3E0C12CE0
:1038B000D12C7601A785B089218932894389548921
:1038C0000E94022DC60ED71EE81EF91EEB5AFF4FAE
:1038D000CE17DF0779F76091B1047091B20480913F
:1038E000B3049091B4046C0D7D1D8E1D9F1DDF915E
:1038F000CF91FF90EF90DF90CF900895089590E0E2
:1039000080E00895009769F0FC0101900020E9F73C
:103910003197AF01481B590BBC018EE399E00C9421
:10392000681890E080E00895CF92DF92EF92FF92C6
:103930001F93CF93DF93162F24E220939A03FC0169
:10394000C080D180E280F380F0EACF16F6E8DF068F
:10395000F1E0EF06F1047CF5C701B60124E630E0A2
:1039600040E050E00E94E32C7F936F933F932F93AE
:103970008DE393E09F938F931F9288E08F938BE961
:1039800093E09F938F930E94FF2D8DB79EB70A9669
:103990000FB6F8949EBF0FBE8DBF8BE993E0112345
:1039A00011F08AE993E0DF91CF911F91FF90EF90A2
:1039B000DF90CF900895C11491EED90695EFE906F6
:1039C00095E0F906B4F5C701B60120EA36E841E012
:1039D00050E00E94E32CE901C701B60128EE33E074
:1039E00040E050E00E94E32CCA01B90124E630E037
:1039F00040E050E00E94E32C8BE41F928F937F9372
:103A00006F93DF93CF9385E493E09F938F931F92FF
:103A100088E08F938BE993E09F938F930E94FF2D13
:103A2000EDB7FEB73C960FB6F894FEBF0FBEEDBFE4
:103A3000B4CFC701B60120E031EE45EF55E00E945A
:103A4000E32CE901C701B60120E432E44FE050E085
:103A50000E94E32CCA01B90124E630E040E050E0C6
:103A60000E94E32C8DE4C9CF0F931F93CF93DF9374
:103A7000EC0188E390E09093DF048093DE0484E01F
:103A800090E09093DD048093DC04CE010E94821CC0
:103A9000DE01AD5ABF4FFE01EC5AFF4F8C91908171
:103AA000891B41E157E287FD02C040E257E208E08E
:103AB00028E064E070E08EE290E00E94CA1485E5A0
:103AC00090E09093DF048093DE0484E090E0909394
:103AD000DD048093DC0461E0CE0141960E94941CD9
:103AE0000E94821C21E241E46FE070E087E390E0F5
:103AF0000E94411B659688E390E0699128813FEE22
:103B0000320F4FEE460F8C010F5F1F4F4E3160F4A6
:103B10003E31A8F4022E000C330B062E000C770B5E
:103B2000A8010E94F11902C03E3158F0C8010737C0
:103B3000110519F7DF91CF911F910F910895203151
:103B400054F020330CF02FE2022E000C330B6033C4
:103B500024F06FE2E2CF20E1F7CF6031F4F660E1CC
:103B6000DCCF0C94CD2CCF92DF92EF92FF926B01C1
:103B70007C01C114D104E104F10441F00E946E2CD7
:103B8000A70196010E94E32C6B017C01C701B601DD
:103B9000FF90EF90DF90CF9008954F925F926F92D9
:103BA0007F929F92AF92BF92CF92DF92EF92FF925D
:103BB0000F931F93CF93DF93EC015C0184E5A80E74
:103BC000B11CF5019080FF978E0181818193AE1623
:103BD000BF06D9F7CD840C2C000CDD08B6016F5F51
:103BE0007F4F072E000C880B990BD194C194D108FC
:103BF0000D2C000CEE08FF08C616D706E806F906DD
:103C000054F46C197D098E099F090E94B31DC60EDC
:103C1000D71EE81EF91E2C2DCC20E1F249845A84CF
:103C20006B847C84022E000C330B440B550B509597
:103C30004095309521953F4F4F4F5F4FC301B201E3
:103C40000E94462D9B01AC016D817E818F819885FC
:103C50000E94D6156D837E838F83988720E030E0A5
:103C6000A901141415041604170434F4C301B20195
:103C70000E94B31D9B01AC014D805E806F807884F3
:103C8000C301B2010E94D615698B7A8B8B8B9C8BFA
:103C900080E1F0E54F16F3EC5F066104710439F042
:103CA000F1E04F1651046104710499F48FE2F501BB
:103CB0008083DF91CF911F910F91FF90EF90DF9064
:103CC000CF90BF90AF909F907F906F905F904F90FC
:103CD0000895892D8C0DF501808380338CF0452863
:103CE0004628472831F38F52C05CDF4FF801958991
:103CF000981B958B0F5F1F4FC017D107B9F7D9CF0E
:103D00008031BCF690E1981BC05CDF4FF8018589DB
:103D1000890F858B0F5F1F4FC017D107B9F7C9CF28
:103D20008091AF049091B0046EE170E00E94622D2A
:103D3000892BC1F482E091E00E94CD1D87E591E0DE
:103D40000E94CD1D8CEA91E00E94CD1D81E092E0A1
:103D50000E94CD1D86E592E00E94CD1D8BEA92E087
:103D60000E94CD1DE091AE0485E5E89FF00111248D
:103D7000EA5AFE4F8081833124F482E08093A704C5
:103D800008958B3214F083E0F9CF883214F081E08B
:103D9000F5CF1092A7040895CF92DF92EF92FF9291
:103DA0000F938091A70400E420E34EEF58E18823AD
:103DB00061F000E420E344E557E1813031F08230E6
:103DC00081F400E420E34AEA55E170E060E090E02D
:103DD00080E00E94CA140F91FF90EF90DF90CF9087
:103DE00008958330C1F763E070E080E090E00E94C6
:103DF000B31D6B017C0163E070E080E090E00E9405
:103E0000B31D6150710981099109062E000C770BD1
:103E1000D701C6010197A109B10900E420E340E000
:103E200054E1082E000C990BD4CFCF92DF92EF9281
:103E3000FF921F93CF93DF93209137093091380978
:103E4000E091AF04F091B004CF016EE170E00E9408
:103E5000622DEC012115310571F080913D09882317
:103E600009F47BC0209709F078C010923D091092A8
:103E70003809109237098091370990913809CD2B74
:103E800009F0A0C0892B09F0A0C08091A9048F5F20
:103E90008093A904C091A604CF3F09F496C0D0E056
:103EA0008FEF8093A60463E070E080E090E00E94D2
:103EB000B31D6111F0C06FE070E080E090E00E94FF
:103EC000B31D25E52C9FF0012D9FF00D1124EE5F11
:103ED000FE4F9B01AC012F5F3F4F4F4F5F4F6581FE
:103EE0007681878190850E94462D24E630E040E06F
:103EF00050E00E94E32C69017A0162E070E080E00A
:103F000090E00E94B31D672B682B692B41F0F09461
:103F1000E094D094C094C11CD11CE11CF11C85E537
:103F20008C9FF0018D9FF00D1124EE5FFE4F858177
:103F30009681A781B0858C0D9D1DAE1DBF1D1816E5
:103F400019061A061B0624F081E090E0A0E0B0E01C
:103F500085839683A783B08738C06091330970E06A
:103F6000CF010E94622D892B09F085CF80913B09FA
:103F70008F5F80933B099091300989137CCF109219
:103F80003B0980913A0990913C09891778F48F5F39
:103F900080933A09E0913909E20FF32FF11D8081F6
:103FA000811169CF81E080933D0965CF8091390906
:103FB000F901E80FF11D9081992361F38F5F8093E0
:103FC0003909E8CF892B09F465CF9091A904809134
:103FD000A804981358C01092A90464E170E080E02E
:103FE00090E00E94B31D615F6093A80466E070E0FA
:103FF00080E090E00E94B31D162F6093A6046AEA49
:1040000070E080E090E00E94B31DFB01EE0FFF1F07
:10401000E952F34E6591749182E294E00E94C62CBD
:1040200080E8A2E2B4E0C2EAD3E09C91911164C0BE
:10403000188225E5129FC00111248E5F9E4F9F9329
:104040008F9382EA93E09F938F931F9280E88F93E0
:10405000C2E2D4E0DF93CF930E94FF2DD0933809C2
:10406000C09337091092390981E080933A09109280
:104070003B0910923D098DB79EB708960FB6F8948C
:104080009EBF0FBE8DBFDF91CF911F91FF90EF902C
:10409000DF90CF900895623009F097CF85E58C9F2F
:1040A000F0018D9FF00D1124EE5FFE4F6685862F87
:1040B00090E0B0E0A0E082309105A105B105BCF030
:1040C000BC01CD0161507109810991090E94B31DA4
:1040D000DC01CB010196A11DB11D25E52C9FF0014E
:1040E0002D9FF00D1124EE5FFE4F85876ECF81E08E
:1040F00090E0A0E0B0E0F1CF9130A1F49D012E5FFF
:104100003F4F11969C91482F491BD901481709F43C
:104110008CCF813009F48CCF2F5F3F4F9C919993C6
:104120008150F3CF923051F4813009F481CF119650
:104130009C91119799938150129677CFE92FF0E0D7
:10414000943BC8F0E45BF1099F01220F331FE20F9B
:10415000F31FE55BFE4F93E0E855F54E981B813069
:1041600009F466CF2491299381503196292F280F85
:10417000B1F711965ACF9D3128F0EE0FFF1F7D97B2
:1041800092E0EACF91E0E8CF1F920F920FB60F9224
:1041900011248F939F938091E1009091E100937F90
:1041A0009093E10083FF0FC01092E90091E090939B
:1041B000EB001092EC0092E39093ED001092DB0480
:1041C00098E09093F00082FF22C093E09093E90082
:1041D0009091F200992319F09AE39093E80090915E
:1041E000CC04992341F09091CC0491509093CC044D
:1041F000911101C05D9A9091DA04992341F0909158
:10420000DA0491509093DA04911101C0289A84FF46
:1042100018C08091E2008E7E81608093E2008091E0
:10422000E1008F7E8093E1008091CD048E7E8061DD
:104230008093CD049F918F910F900FBE0F901F9090
:10424000189580FFF7CF8091E2008E7E8061809389
:10425000E2008091E1008E7E8093E1008091CD04A8
:104260008E7E8160E5CF1F920F920FB60F921124C0
:10427000CF92DF92EF92FF920F931F932F933F9372
:104280004F935F936F937F938F939F93AF93BF935E
:10429000EF93FF93CF93DF93CDB7DEB76C97DEBF7D
:1042A000CDBF1092E9008091E80083FF25C068E04F
:1042B000CE0145960E947E1782EF8093E8008D899B
:1042C00087FF39C09091E80090FFFCCF982F90763F
:1042D00009F034C19E894F89588D2F89F88C91112E
:1042E00031C0803861F58091CB048093F100109249
:1042F000F1008EEF8093E8006C960FB6F894DEBF65
:104300000FBECDBFDF91CF91FF91EF91BF91AF91E4
:104310009F918F917F916F915F914F913F912F91DD
:104320001F910F91FF90EF90DF90CF900F900FBEF5
:104330000F901F9018959EEF9093E800C7CF1092B2
:10434000F100D5CF913059F48111D3CF41305105CF
:1043500081F68091CB048D7F8093CB04CACF9330BC
:1043600049F48111C6CF4130510519F68091CB0433
:104370008260F2CF953041F48091E80080FFFCCF5D
:1043800020682093E300B5CF963009F0A9C00B8DCB
:104390001C8D22E01092E9001092C9041092C8040A
:1043A000F2122EC01092C7041092C6040E944D173C
:1043B0001F8299E09983FA8291E09E8390EA988720
:1043C0009AEF99872091C8043091C904275F3F4F25
:1043D0003C832B838D831092E9001092C9041092C4
:1043E000C8041093C7040093C60449E050E0BE011E
:1043F0006F5F7F4F80E00E9427170E944D1779CF93
:104400001093C7040093C6040E946416DC01129640
:104410000D911C910115110509F451C1D801ED91BF
:10442000FC910480F581E02DBE016B5E7F4FC801D9
:104430000995009709F03EC1F80100851185EACF82
:10444000F3E0FF120EC08F89882309F440C0823048
:1044500061F440E867E086E399E20E94AF238111AE
:1044600048CF81E28093EB0047CF813029F440E8C8
:104470006BE08AE299E2F1CF833099F70E946416EB
:10448000DC011296ED90FC908E010F5F1F4F6801CA
:10449000E114F10479F0D701ED91FC910680F781E8
:1044A000E02DB801C7010995080F111DF701E0843F
:1044B000F184EECFD8011C92F60101900020E9F7BB
:1044C0003197BF016C197D0940E0C601C6CF64E198
:1044D00079E2FB01449150E080E80E94271709CF60
:1044E000973009F4BECF983021F481E08093F10039
:1044F00000CF993009F0FDCE837009F0B2CFE9E129
:10450000F3E081E031E096E32191222371F0809382
:10451000E9003093EB00DF0111972C912093EC0020
:104520009093ED008F5F873079F78EE78093EA00F4
:104530001092EA008F898093DB04DBCE8B8D9C8DFB
:104540001092E9001092C9041092C8049093C70415
:104550008093C604898D811192C08E899D89913A7C
:1045600049F4813209F07DCF47E050E064E073E028
:1045700080E0B3CF913209F074CF833269F48F8930
:10458000988DB0E0A0E08093000390930103A09386
:104590000203B0930303ADCE803269F48091E8004A
:1045A00082FFFCCF67E084E093E00E947E178BEFF0
:1045B0008093E8009ECE823209F09BCE8F89809353
:1045C0000B03EEEFFFE7859194918B3F9C4D51F1EA
:1045D000E0E0F8E08091040390910503A0910603C8
:1045E000B0910703803B9440A105B105F1F480919F
:1045F0000B0380FD1AC0EE3F8AE0F80789F587E7D4
:1046000097E791838083809160008093CA0488E15A
:104610009BE00FB6F894A895809360000FBE90932E
:10462000600067CEEEEFFAE0D5CF808191818737C9
:10463000974709F05ECEA8958091600088618093CD
:1046400060008091CA0480936000EE3F2AE0F20788
:1046500089F08091FE0A9091FF0A9183808349CE70
:10466000808191818737980751F29093FF0A809358
:10467000FE0AC5CF1092FF0A1092FE0A3ACE0E949F
:104680006416DC0112960D911C910115110509F4B7
:10469000E8CED801ED91FC910190F081E02DBE01B2
:1046A0006B5E7F4FC8010995811123CEF80100850B
:1046B0001185EBCF181619060CF41BCED2CEF1E003
:1046C000FF12BECE68E179E204CF1F920F920FB6BF
:1046D0000F9211242F933F938F939F93AF93BF9388
:1046E0008091BE049091BF04A091C004B091C10418
:1046F0003091BD0423E0230F2D3758F50196A11DFD
:10470000B11D2093BD048093BE049093BF04A09379
:10471000C004B093C1048091C2049091C304A091DD
:10472000C404B091C5040196A11DB11D8093C204BB
:104730009093C304A093C404B093C504BF91AF91F8
:104740009F918F913F912F910F900FBE0F901F90CF
:10475000189526E8230F0296A11DB11DD2CFEF9226
:10476000FF920F931F93CF93DF93F82E192FE62E0E
:10477000042F81E0860F880F0E94F91683E00E94C3
:10478000F916CF2DD12FEC0EFD2EF11CCE15DF0525
:10479000B9F007FF13C0FE0184910E94F916182F8B
:1047A00080E00E94F916812321968111EFCFDF91DD
:1047B000CF911F910F91FF90EF9008958881EDCFD9
:1047C00081E0F5CFE0EEF8E01382128288EE93E00C
:1047D000A0E0B0E084839583A683B78383E293E06F
:1047E000918380838FEF9FEF95878487EEE3F9E0D5
:1047F0001382128285E393E091838083E0E3F9E002
:1048000086E0808388E081838BE0828381E08383FC
:104810000895CF93DF93CDB7DEB7A2970FB6F89484
:10482000DEBF0FBECDBF789484B5826084BD84B5F1
:10483000816084BD85B5826085BD85B5816085BD9B
:1048400080916E00816080936E0010928100809153
:1048500081008260809381008091810081608093DB
:104860008100809180008160809380008091910020
:10487000826080939100809191008160809391008B
:10488000809190008160809390008091C10084604D
:104890008093C1008091C10082608093C1008091AB
:1048A000C10081608093C1008091C30081608093CA
:1048B000C3008091C00082608093C0008091C200DC
:1048C00081608093C20080917A00846080937A0036
:1048D00080917A00826080937A0080917A00816072
:1048E00080937A0080917A00806880937A00109299
:1048F000DB041092CB041092CD048091D70081602C
:104900008093D70080EA8093D80089B5806189BD03
:1049100089B5826089BD09B400FEFDCF61E070E019
:1049200080E090E00E94B0178091D8008F7C806179
:104930008093D8008091E000807F8093E000809198
:10494000E1008E7E8093E1008DE08093E200559A35
:10495000209A81EC80937C0085B1806F85B984B109
:10496000877E84B984B1876E84B95E9A5F988AB174
:10497000806D8AB9769A6E9881B3806F81BB899871
:1049800080B38D7080BB80E58CBD81E08DBD85E0FE
:1049900090E00E9497185F9A85E090E00E94971837
:1049A0005E985C98EBEDF3E288EE93E224912EBDE5
:1049B00000000DB407FEFDCF31968E179F07B1F7AB
:1049C0005C9A81E8809364008091650081608093A7
:1049D00065000E94D41880E80E94C918882399F0C5
:1049E0005C9885EA8EBD00000DB407FEFDCF5C9A91
:1049F0002E982F982D988091640080628093640097
:104A00000E94A418FDCF84E00E94C918882309F4ED
:104A100048C02D9884E80E94C9188823E1F00E94BC
:104A2000951888EC90E00E9497182F9882E090E00B
:104A30000E94CD2C8F3F29F06FEF82E090E00E9422
:104A4000D52C84EF91E00E9497182F9A84E80E9459
:104A5000C9188111FBCF84E10E94C9188823E1F0B5
:104A60000E94951888EC90E00E9497182E9882E09A
:104A700090E00E94CD2C882329F060E082E090E055
:104A80000E94D52C84EF91E00E9497182E9A84E121
:104A90000E94C9188111FBCF88EC90E00E94971802
:104AA000B2CF0E94951882E090E00E94B11D882349
:104AB00009F444C03E9A3F9A81E090E00E94B11D03
:104AC000182F147081FF0FC011112E98F1EFEF2EE7
:104AD000FF24FA9480E40E94C918882391F12E9A49
:104AE0002F9A0E94951882E390E00E9497180E94E6
:104AF0009C188111F8CF81E2809300018DE28093B0
:104B0000BA041092BB048FB7F8944091BE04509140
:104B1000BF046091C0047091C1048FBF8091A20452
:104B2000882309F46BC01092A2040E94A41880E0AC
:104B300090E0892B41F30E940000E5CF3E983F981A
:104B4000BBCF112331F004E0E016F10411F42E9AEA
:104B50002F9881E00E94931500E128E54BE253E293
:104B6000B70184E190E00E94CA140E94D4188FE03B
:104B700090E00E9497182FEFE21AF20A39E1E3164B
:104B8000F10409F0A7CF112311F02F9A2D9880E995
:104B900091E00E9497180E94951881E090E00E9491
:104BA000B11D80FFA0CF8AE090E00E94B11D9FEF71
:104BB000980F9E3F08F097CF22E330E03093DF0458
:104BC0002093DE0428E330E03093DD042093DC04FE
:104BD0000BE010E0682F8EE399E00E94751AC8017F
:104BE0000E94B11D0F5F1F4F0131110599F70E94FF
:104BF000D41888EE93E00E94971875CF8091A30493
:104C0000942F981B892F90910001891738F48F5F9A
:104C1000891708F08ACF0E94A41887CF81E080937B
:104C2000A2044093A3048091AF049091B004019634
:104C30009093B0048093AF0480E60E94C91881115C
:104C40001DC08AE58093BC048091A5048093A404D0
:104C50000E949C188093A5041091BB0411112CC0D4
:104C60001091BA04112321F00E949C188C70B1F0AD
:104C700081E08093BB041092BA0459CF8091BC04A8
:104C800081508093BC048111DFCF8DE28093BA0400
:104C90001092BB048AE58093BC0449CF1D3241F4D5
:104CA0000E94A91888EE93E20E941C190E94D41851
:104CB00011501093BA043BCF113009F000C180911C
:104CC000BA0481111EC00E94A9188CE995E20E94C5
:104CD0001C191093010180E80E94C918882361F013
:104CE0001092DF041092DE041092DD041092DC04B6
:104CF0008FE493E00E94821C0E94D41881E080938C
:104D0000BA0488E00E94BE18882309F410CF80916D
:104D100064008E7F8093640080917A008064809329
:104D20007A0080917A0086FDFCCF00917800109186
:104D300079000E948B17AB01BC01C801B0E0A0E074
:104D4000DC01992788275C016D01A40EB51EC61EE3
:104D5000D71EC601B5012091640021602093640034
:104D6000611571058105910511F00E94BD2C10920D
:104D7000A90482E08093A8041092A7041092AE04C4
:104D80001092B90480E48093B10482E48093B20469
:104D90008FE08093B3041092B4041092B504109283
:104DA000B6041092B7041092B80483E090E0909398
:104DB000AD048093AC041092AB041092AA0410923C
:104DC000340985E38093350980E880933609109291
:104DD0003809109237091092390910923A09109245
:104DE0003B09609130090E94562D8F5F80933C09EA
:104DF00010923D098FEF8093A6048AE58093BC044E
:104E000062E0E62E61E0F62E8701B12CD12CC12C98
:104E10006AE170E080E090E00E94B31DF801EC0DC3
:104E2000FD1D6F5B7F4F8F4F9F4F60832FEFC21A27
:104E3000D20A33E0C316D10459F764E070E080E091
:104E400090E00E94B31D6330710581059105F9F46E
:104E50006AE170E080E090E00E94B31D6F5B7F4FDD
:104E60008F4F9F4FD80113966C9352E0C52E51E09F
:104E7000D52EA12CBA1471F0B601C8010E94F62DEE
:104E8000F5E5CF0ED11C892B09F2A394F3CFF801DD
:104E90001382EBCFB3940B5A1F4F46E0A42EBA10E7
:104EA000B5CF10E4C7010E94CD1D1150D9F7BA94B7
:104EB00005E5E00EF11CB110F4CF82E0DACE12303D
:104EC00009F064C00E94151F0E94901E80E20E949B
:104ED000BE18882341F08091AE04882309F452C0A3
:104EE00081508093AE0480E40E94BE18882341F074
:104EF0008091AE04853009F447C08F5F8093AE0483
:104F000088E00E94BE181091AE04212F30E0882363
:104F1000B9F083E08093BB0483E090E09093AD040C
:104F20008093AC0485E5829FF001839FF00D1124EE
:104F3000EE5FFE4F878590899093AB048093AA041F
:104F400084E00E94BE18882319F084E08093BB049B
:104F50000E944D1C6130714E854F95401CF085E0DC
:104F60008093BB0481E00E94931535E5139FC00137
:104F700011248E5F9E4F0E94341D0E94CC1E0E9401
:104F8000711BD5CD85E0ADCF80E0B8CF133009F0EF
:104F900048C30E94151F0E94901E8091AE04882E67
:104FA000912C35E5D32E8D9DC0011124AC014E5FAF
:104FB0005E4F5AA349A380E10E94BE18E090AA0464
:104FC000F090AB04882309F4AEC18091AC049091B9
:104FD000AD0402978430910588F4880F991FFC0175
:104FE000E05FFC4F808191818E159F0550F4E81A97
:104FF000F90AF092AB04E092AA0407C081E090E0C5
:10500000F3CF1092AB041092AA0425E5289DC001AD
:10501000299D900D11248C010E5F1E4F4801F8014F
:1050200081899289A389B489AC01BD01770F440BB2
:10503000542FBA015C016D01E42EF42E042F142FBD
:105040002091B1043091B2044091B3045091B40462
:105050006091B5047091B6048091B7049091B80442
:105060000E94782DD4011F962D903C905101C12CA7
:10507000D12CE12CF12C00E010E00E94D52DF22F74
:10508000E32F3A014B01B82FA92F8091AA049091E8
:10509000AB046C01F12CE12C00E010E098018D8B49
:1050A000DE8AEF8AF88E098F1A8F2B8F3C8F2F2F75
:1050B0003E2FA301B4018B2F9A2F5601C12CD12C66
:1050C000E12CF12C00E010E00E94E72D88F420355F
:1050D000334C41055105610571058105910519F0B4
:1050E00010F0F0E5E3ECCF019093AA04E093AB0459
:1050F00081E00E94931589A19AA10E94341D0E940B
:10510000CC1E0E94711B6090AE04712C8090AC0488
:105110009090AD0416E08116910409F04AC225E58D
:10512000269DC001279D900D11249C012E5F3E4FAE
:105130002901F90181899289A389B489AC01BD0152
:10514000770F440B542FBA015C016D01E42EF42E4D
:10515000042F142F2091B1043091B2044091B30474
:105160005091B4046091B5047091B6048091B70475
:105170009091B8040E94782DD2011F96ED91FC9178
:105180005F01D12CC12CE12CF12C8701ED8BBE8A63
:10519000CF8AD88EE98EFA8E0B8F1C8FC12CD12C22
:1051A000E12CF12C00E010E00E94D52DF22FE32F2E
:1051B0002035334C41055105610571058105910587
:1051C00019F010F0F0E5E3ECCF01E92EFE2ECC242F
:1051D000C394D12C20E04FE160E270E0C6010E9450
:1051E0001C1B1FEFC11AD10A21E3C216D10491F78B
:1051F000C4010197059708F0E7C1882D880F880F33
:10520000881A880C3EE1830E912C48E0840E911C94
:1052100008E028E040E257E269E270E0C4010E9441
:10522000CA1428E041E157E268E370E0C4010E943B
:10523000CA14FF92EF9288E793E09F938F931F9297
:1052400086E08F9361E070E06C0F7D1F7F936F931A
:105250000E94FF2D8AE090E09093DF048093DE04AB
:10526000D092DD04C092DC04CE0101960E94821C23
:105270000FB6F894DEBF0FBECDBF85E5869DF00169
:10528000879DF00D1124EE5FFE4FA785B089EA16C9
:10529000FB0608F0BAC1AE19BF0925E5269DC0017D
:1052A000279D900D11248C010E5F1E4F6801F8019F
:1052B00021893289438954890E94022D69837A8326
:1052C0008B839C8360E0CE0101960E94941C8C012C
:1052D00084E090E09093DF048093DE0481E290E02C
:1052E0009093DD048093DC04D6011F968D919C91F0
:1052F0008E159F0508F08EC185E693E00E94821C02
:10530000C8010E94821C21E242E36FE170E090E05C
:1053100080E00E94411B42E369E270E090E080E09F
:105320000E94A21504CC80E80E94BE188701882341
:1053300061F18091AC049091AD04029784309105A5
:10534000D0F4880F991FFC01E05FFC4F80819181B0
:10535000A70170E060E000E513EC20E030E0081BFE
:10536000190B21093109401751076207730734F4FB
:10537000E80EF91E3ECE81E090E0EACF80E593ECA6
:105380009093AB048093AA0440CE80E20E94BE18A2
:10539000882371F08091AC049091AD048630910522
:1053A00008F033CE01969093AD048093AC042DCEDB
:1053B00080E40E94BE18882349F08091AC0490914B
:1053C000AD04009709F421CE0197EDCF88E00E944B
:1053D000BE18882309F4E7C05091B1045D8F609135
:1053E000B2046E8F7091B3047F8F8091B40488A350
:1053F0005090B5044090B6043090B7042090B804A3
:10540000D89CF001D99CF00D1124EE5FFE4F67840B
:1054100070888091AC049091AD048630910509F0BC
:1054200090C085E5889DF001899DF00D1124EE5F07
:10543000FE4F81899289A389B489AC01BD01770FA0
:10544000440B542FBA015C016D01E42EF42E042F9D
:10545000142F2D8D3E8D4F8D58A1652D742D832DCC
:10546000922D0E94782D5301D12CC12CE12CF12CCE
:1054700087016D8ABE8ACF8AD88EE98EFA8E0B8F0D
:105480001C8FC12CD12CE12CF12C00E010E00E94EB
:10549000D52DF22FE32F2035334C41055105610501
:1054A00071058105910519F010F0F0E5E3ECCF01ED
:1054B000092F1E2F6016710608F048C085E5889DEB
:1054C000F001899DF00D1124EE5FFE4F108B0787D0
:1054D000D801A619B70921893289438954890E94C4
:1054E000022D7B018C015B016C01DD0CAA08BA2C3A
:1054F0006501AD8ABE8ACF8AD88E2D8D3E8D4F8DA7
:1055000058A1652D742D832D922D57016801ED88CA
:10551000FE2C0E2D1E2D0E94DE2D2093B104309303
:10552000B2044093B3045093B4046093B5047093F1
:10553000B6048093B7049093B80482E08093BB04D0
:1055400064CD892B09F0B6CF10E000E006151705F1
:10555000A0F785E5889DF001899DF00D1124EE5F8F
:10556000FE4F108B0787D301A01BB10B2189328915
:10557000438954890E94022D6B017C01FF0CCC08E9
:10558000DC2C76019B01AC016C2D7C2D8C2D9C2D8F
:10559000AD8CBE8CCF8CD8A0E52CF42C032D122D15
:1055A0000E94D52DBACF84E00E94BE188111C5CFCC
:1055B0002CCDE090AA04F090AB048114910409F082
:1055C00006CEF12CE12C03CE96E08916910469F405
:1055D0009092DF048092DE04D092DD04C092DC045D
:1055E00084E593E00E94821C48CE892809F045CECC
:1055F000A2E0B0E0B093DF04A093DE04D092DD041B
:10560000C092DC048CE593E0EDCFF701EA1BFB0BC5
:10561000DF0143CEE816F90608F075CE87E693E081
:105620006DCE143009F0DDC00E94151F80E10E948C
:10563000BE18882309F452C09091B90481E09430D7
:1056400009F480E0890F8093B90484E00E94BE18B9
:10565000811105C088E00E94BE18882319F082E0FD
:105660008093BB0481E00E9493150E94CC1E0E948F
:10567000711B1091B90428E0E22EF12C00E135E510
:10568000B32E46E3C42ED12C173008F04DC0113094
:1056900008F46BC0612F6150770BB69EF001B79E86
:1056A000F00D1124EE5FFE4F80898F9387858F93D5
:1056B000FF93EF9381E793E09F938F931F920F9354
:1056C000E1E0F0E0EC0FFD1FFF93EF930E94FF2D50
:1056D0000FB6F894DEBF0FBECDBF29C08091AF04D6
:1056E0009091B00467E070E00E94622D8C01892BDC
:1056F00029F480E10E94C91881119ECF80E80E94A0
:10570000BE18882341F08091B90491E0811101C055
:1057100090E0891B98CF012B09F097CF80E80E9479
:10572000C9188111F0CF91CF173009F440C0D09241
:10573000DF04C092DE04F092DD04E092DC04CE01CE
:1057400001960E94821C1F5FBAE0EB0EF11CE0E3A1
:10575000EE16F10409F098CF2EE24DE464E070E01B
:1057600083E390E00E94411BE2C98091B1049091D3
:10577000B204A091B304B091B404898B9A8BAB8B23
:10578000BC8B61E0CE0141960E94941C9F938F9345
:10579000E9E6F3E0FF93EF931F920F9321E030E0EF
:1057A0002C0F3D1F3F932F930E94FF2D91CF0E94FE
:1057B0004D1C698B7A8B8B8B9C8B61E0CE01419663
:1057C0000E94941C9F938F934CE753E05F934F93F9
:1057D0001F920F9381E090E08C0F9D1F9F938F93FA
:1057E000E3CF153009F0A3C98091BA04811124C018
:1057F00081E08093BA040E94A9188FE297E20E9488
:105800001C1940E866E370E090E080E00E94A21579
:1058100082E0A82EB12CB092DF04A092DE0498E3BF
:10582000C92ED12CD092DD04C092DC0484E893E030
:105830000E94821C0E94D41888E00E94BE18811128
:1058400017CA75C98F929F92AF92BF92CF92DF9283
:10585000EF92FF92CF93DF93EC01688179818A8187
:105860009B81611571058105910521F464E279ED53
:105870008BE597E02DE133EF41E050E00E94E32C0F
:1058800049015A019B01AC01A7EAB1E40E94022D33
:105890006B017C01ACEEB4EFA50194010E94102DC8
:1058A000C60ED71EE81EF91EF7FE06C081E0C81A14
:1058B000D108E10880E8F80AC882D982EA82FB822E
:1058C000C701B6019F77DF91CF91FF90EF90DF90F6
:1058D000CF90BF90AF909F908F9008958F929F929E
:1058E000AF92BF92CF92DF92EF92FF9260910C0342
:1058F00070910D0380910E0390910F036115710556
:105900008105910521F464E279ED8BE597E02DE1C5
:1059100033EF41E050E00E94E32C49015A019B0122
:10592000AC01A7EAB1E40E94022D6B017C01ACEE50
:10593000B4EFA50194010E94102DC60ED71EE81EDB
:10594000F91EF7FE06C081E0C81AD108E10880E818
:10595000F80AC0920C03D0920D03E0920E03F0926D
:105960000F03C701B6019F77FF90EF90DF90CF90B4
:10597000BF90AF909F908F90089560930C037093A9
:105980000D0380930E0390930F030895FB01DC0138
:1059900005900D920020E1F70895F999FECF92BD90
:1059A00081BDF89A992780B50895262FF999FECFE1
:1059B0001FBA92BD81BD20BD0FB6F894FA9AF99A2C
:1059C0000FBE01960895052E97FB1EF400940E94C9
:1059D000FA2C57FD07D00E94152D07FC03D04EF47A
:1059E0000C94FA2C50954095309521953F4F4F4F90
:1059F0005F4F089590958095709561957F4F8F4F7B
:105A00009F4F08950E94372DA59F900DB49F900D34
:105A1000A49F800D911D11240895B7FF0C94022DB1
:105A20000E94022D821B930B0895A1E21A2EAA1B3D
:105A3000BB1BFD010DC0AA1FBB1FEE1FFF1FA2173E
:105A4000B307E407F50720F0A21BB30BE40BF50B3B
:105A5000661F771F881F991F1A9469F760957095C4
:105A6000809590959B01AC01BD01CF010895A29F47
:105A7000B001B39FC001A39F700D811D1124911D22
:105A8000B29F700D811D1124911D0895DB018F932C
:105A90009F930E94022DBF91AF91A29F800D911DF7
:105AA000A39F900DB29F900D11240895991B79E04A
:105AB00004C0991F961708F0961B881F7A95C9F79E
:105AC00080950895AA1BBB1B51E107C0AA1FBB1FED
:105AD000A617B70710F0A61BB70B881F991F5A957A
